{
  "contractName": "Fruits",
  "abi": [
    {
      "inputs": [
        {
          "internalType": "string",
          "name": "fruitName",
          "type": "string"
        }
      ],
      "name": "addFruit",
      "outputs": [],
      "stateMutability": "nonpayable",
      "type": "function"
    },
    {
      "inputs": [
        {
          "internalType": "uint256",
          "name": "fruitIndex",
          "type": "uint256"
        },
        {
          "internalType": "string",
          "name": "newFruitName",
          "type": "string"
        }
      ],
      "name": "updateFruit",
      "outputs": [
        {
          "internalType": "bool",
          "name": "",
          "type": "bool"
        }
      ],
      "stateMutability": "nonpayable",
      "type": "function"
    },
    {
      "inputs": [
        {
          "internalType": "uint256",
          "name": "fruitIndex",
          "type": "uint256"
        }
      ],
      "name": "deleteFruit",
      "outputs": [
        {
          "internalType": "bool",
          "name": "",
          "type": "bool"
        }
      ],
      "stateMutability": "nonpayable",
      "type": "function"
    },
    {
      "inputs": [],
      "name": "getFruits",
      "outputs": [
        {
          "internalType": "string[]",
          "name": "",
          "type": "string[]"
        }
      ],
      "stateMutability": "view",
      "type": "function"
    }
  ],
  "bytecode": "0x608060405234801561001057600080fd5b50610aa9806100206000396000f3fe608060405234801561001057600080fd5b506004361061004c5760003560e01c806324050cd9146100515780639094f27f1461006d578063e6958cf71461009d578063f8202be3146100bb575b600080fd5b61006b60048036038101906100669190610608565b6100eb565b005b61008760048036038101906100829190610687565b61012a565b60405161009491906106cf565b60405180910390f35b6100a561020f565b6040516100b29190610834565b60405180910390f35b6100d560048036038101906100d09190610856565b6102e8565b6040516100e291906106cf565b60405180910390f35b60008190806001815401808255809150506001900390600052602060002001600090919091909150908051906020019061012692919061033e565b5050565b60008160008054905011156102055760008290505b600160008054905061015191906108e1565b8110156101cb5760006001826101679190610915565b815481106101785761017761096b565b5b90600052602060002001600082815481106101965761019561096b565b5b906000526020600020019080546101ac906109c9565b6101b79291906103c4565b5080806101c3906109fb565b91505061013f565b5060008054806101de576101dd610a44565b5b6001900381819060005260206000200160006101fa9190610451565b90556001905061020a565b600090505b919050565b60606000805480602002602001604051908101604052809291908181526020016000905b828210156102df578382906000526020600020018054610252906109c9565b80601f016020809104026020016040519081016040528092919081815260200182805461027e906109c9565b80156102cb5780601f106102a0576101008083540402835291602001916102cb565b820191906000526020600020905b8154815290600101906020018083116102ae57829003601f168201915b505050505081526020019060010190610233565b50505050905090565b600082600080549050111561033357816000848154811061030c5761030b61096b565b5b90600052602060002001908051906020019061032992919061033e565b5060019050610338565b600090505b92915050565b82805461034a906109c9565b90600052602060002090601f01602090048101928261036c57600085556103b3565b82601f1061038557805160ff19168380011785556103b3565b828001600101855582156103b3579182015b828111156103b2578251825591602001919060010190610397565b5b5090506103c09190610491565b5090565b8280546103d0906109c9565b90600052602060002090601f0160209004810192826103f25760008555610440565b82601f106104035780548555610440565b8280016001018555821561044057600052602060002091601f016020900482015b8281111561043f578254825591600101919060010190610424565b5b50905061044d9190610491565b5090565b50805461045d906109c9565b6000825580601f1061046f575061048e565b601f01602090049060005260206000209081019061048d9190610491565b5b50565b5b808211156104aa576000816000905550600101610492565b5090565b6000604051905090565b600080fd5b600080fd5b600080fd5b600080fd5b6000601f19601f8301169050919050565b7f4e487b7100000000000000000000000000000000000000000000000000000000600052604160045260246000fd5b610515826104cc565b810181811067ffffffffffffffff82111715610534576105336104dd565b5b80604052505050565b60006105476104ae565b9050610553828261050c565b919050565b600067ffffffffffffffff821115610573576105726104dd565b5b61057c826104cc565b9050602081019050919050565b82818337600083830152505050565b60006105ab6105a684610558565b61053d565b9050828152602081018484840111156105c7576105c66104c7565b5b6105d2848285610589565b509392505050565b600082601f8301126105ef576105ee6104c2565b5b81356105ff848260208601610598565b91505092915050565b60006020828403121561061e5761061d6104b8565b5b600082013567ffffffffffffffff81111561063c5761063b6104bd565b5b610648848285016105da565b91505092915050565b6000819050919050565b61066481610651565b811461066f57600080fd5b50565b6000813590506106818161065b565b92915050565b60006020828403121561069d5761069c6104b8565b5b60006106ab84828501610672565b91505092915050565b60008115159050919050565b6106c9816106b4565b82525050565b60006020820190506106e460008301846106c0565b92915050565b600081519050919050565b600082825260208201905092915050565b6000819050602082019050919050565b600081519050919050565b600082825260208201905092915050565b60005b83811015610750578082015181840152602081019050610735565b8381111561075f576000848401525b50505050565b600061077082610716565b61077a8185610721565b935061078a818560208601610732565b610793816104cc565b840191505092915050565b60006107aa8383610765565b905092915050565b6000602082019050919050565b60006107ca826106ea565b6107d481856106f5565b9350836020820285016107e685610706565b8060005b858110156108225784840389528151610803858261079e565b945061080e836107b2565b925060208a019950506001810190506107ea565b50829750879550505050505092915050565b6000602082019050818103600083015261084e81846107bf565b905092915050565b6000806040838503121561086d5761086c6104b8565b5b600061087b85828601610672565b925050602083013567ffffffffffffffff81111561089c5761089b6104bd565b5b6108a8858286016105da565b9150509250929050565b7f4e487b7100000000000000000000000000000000000000000000000000000000600052601160045260246000fd5b60006108ec82610651565b91506108f783610651565b92508282101561090a576109096108b2565b5b828203905092915050565b600061092082610651565b915061092b83610651565b9250827fffffffffffffffffffffffffffffffffffffffffffffffffffffffffffffffff038211156109605761095f6108b2565b5b828201905092915050565b7f4e487b7100000000000000000000000000000000000000000000000000000000600052603260045260246000fd5b7f4e487b7100000000000000000000000000000000000000000000000000000000600052602260045260246000fd5b600060028204905060018216806109e157607f821691505b602082108114156109f5576109f461099a565b5b50919050565b6000610a0682610651565b91507fffffffffffffffffffffffffffffffffffffffffffffffffffffffffffffffff821415610a3957610a386108b2565b5b600182019050919050565b7f4e487b7100000000000000000000000000000000000000000000000000000000600052603160045260246000fdfea2646970667358221220bc69490c6cf33d7fc5c7a1fe175ad8a99a303ddd0a024ee231ab8d40225f218564736f6c634300080b0033",
  "immutableReferences": {},
  "source": "// SPDX-License-Identifier: MIT\npragma experimental ABIEncoderV2;\npragma solidity >=0.4.21 <8.10.0;\n\ncontract Fruits{\n    string[] myFruits;\n\n    function addFruit(string memory fruitName) public{\n        myFruits.push(fruitName);\n    }\n\n    function updateFruit(uint fruitIndex, string memory newFruitName) public returns (bool){\n        if(myFruits.length > fruitIndex){\n            myFruits[fruitIndex] = newFruitName;\n            return true;\n        }\n        return false;\n    }\n\n    function deleteFruit(uint fruitIndex) public returns (bool){\n        if(myFruits.length > fruitIndex){\n            for(uint i = fruitIndex; i < myFruits.length - 1; i++){\n                myFruits[i] = myFruits[i + 1];\n            }\n            myFruits.pop();\n            return true;\n        }\n        return false;\n    }\n\n    function getFruits() public view returns (string[] memory){\n        return myFruits;\n    }\n}",
  "sourcePath": "/Users/ducla/Projects/github/smart-contract-example/contracts/Fruits.sol",
  "compiler": {
    "name": "solc",
    "version": "0.8.11+commit.d7f03943.Emscripten.clang"
  },
  "schemaVersion": "3.4.4",
  "updatedAt": "2022-01-05T07:55:35.978Z",
  "devdoc": {
    "kind": "dev",
    "methods": {},
    "version": 1
  },
  "userdoc": {
    "kind": "user",
    "methods": {},
    "version": 1
  }
}